{
  "_format": "hh-sol-artifact-1",
  "contractName": "MarketPlace",
  "sourceName": "contracts/MarketPlace.sol",
  "abi": [
    {
      "anonymous": false,
      "inputs": [
        {
          "indexed": false,
          "internalType": "uint256",
          "name": "itemId",
          "type": "uint256"
        },
        {
          "indexed": true,
          "internalType": "address",
          "name": "nft",
          "type": "address"
        },
        {
          "indexed": false,
          "internalType": "uint256",
          "name": "tokenId",
          "type": "uint256"
        },
        {
          "indexed": true,
          "internalType": "address",
          "name": "buyer",
          "type": "address"
        }
      ],
      "name": "Bought",
      "type": "event"
    },
    {
      "anonymous": false,
      "inputs": [
        {
          "indexed": false,
          "internalType": "uint256",
          "name": "itemId",
          "type": "uint256"
        },
        {
          "indexed": true,
          "internalType": "address",
          "name": "nft",
          "type": "address"
        },
        {
          "indexed": false,
          "internalType": "uint256",
          "name": "tokenId",
          "type": "uint256"
        },
        {
          "indexed": true,
          "internalType": "address",
          "name": "seller",
          "type": "address"
        }
      ],
      "name": "Offered",
      "type": "event"
    },
    {
      "inputs": [],
      "name": "itemCount",
      "outputs": [
        {
          "internalType": "uint256",
          "name": "",
          "type": "uint256"
        }
      ],
      "stateMutability": "view",
      "type": "function"
    },
    {
      "inputs": [
        {
          "internalType": "uint256",
          "name": "",
          "type": "uint256"
        }
      ],
      "name": "items",
      "outputs": [
        {
          "internalType": "uint256",
          "name": "itemId",
          "type": "uint256"
        },
        {
          "internalType": "contract IERC721",
          "name": "nft",
          "type": "address"
        },
        {
          "internalType": "uint256",
          "name": "tokenId",
          "type": "uint256"
        },
        {
          "internalType": "bool",
          "name": "sold",
          "type": "bool"
        },
        {
          "internalType": "address",
          "name": "sellar",
          "type": "address"
        }
      ],
      "stateMutability": "view",
      "type": "function"
    },
    {
      "inputs": [
        {
          "internalType": "contract IERC721",
          "name": "_nft",
          "type": "address"
        },
        {
          "internalType": "uint256",
          "name": "_tokenId",
          "type": "uint256"
        }
      ],
      "name": "makeItem",
      "outputs": [],
      "stateMutability": "nonpayable",
      "type": "function"
    }
  ],
  "bytecode": "0x608060405234801561001057600080fd5b506001600081905550610729806100286000396000f3fe608060405234801561001057600080fd5b50600436106100415760003560e01c80631a1beae2146100465780636bfb0d0114610062578063bfb231d214610080575b600080fd5b610060600480360381019061005b91906103e3565b6100b4565b005b61006a610330565b60405161007791906104fe565b60405180910390f35b61009a6004803603810190610095919061041f565b610336565b6040516100ab959493929190610519565b60405180910390f35b600260005414156100fa576040517f08c379a00000000000000000000000000000000000000000000000000000000081526004016100f1906104de565b60405180910390fd5b60026000819055506001600081548092919061011590610624565b91905055508173ffffffffffffffffffffffffffffffffffffffff166323b872dd3330846040518463ffffffff1660e01b8152600401610157939291906104a7565b600060405180830381600087803b15801561017157600080fd5b505af1158015610185573d6000803e3d6000fd5b505050506040518060a0016040528060015481526020018373ffffffffffffffffffffffffffffffffffffffff1681526020018281526020016000151581526020013373ffffffffffffffffffffffffffffffffffffffff168152506002600060015481526020019081526020016000206000820151816000015560208201518160010160006101000a81548173ffffffffffffffffffffffffffffffffffffffff021916908373ffffffffffffffffffffffffffffffffffffffff1602179055506040820151816002015560608201518160030160006101000a81548160ff02191690831515021790555060808201518160030160016101000a81548173ffffffffffffffffffffffffffffffffffffffff021916908373ffffffffffffffffffffffffffffffffffffffff1602179055509050503373ffffffffffffffffffffffffffffffffffffffff168273ffffffffffffffffffffffffffffffffffffffff167f10f1b72b2e817956e912bed19a620c275e526fc6088975d0c498d788277facef6001548460405161031c92919061056c565b60405180910390a360016000819055505050565b60015481565b60026020528060005260406000206000915090508060000154908060010160009054906101000a900473ffffffffffffffffffffffffffffffffffffffff16908060020154908060030160009054906101000a900460ff16908060030160019054906101000a900473ffffffffffffffffffffffffffffffffffffffff16905085565b6000813590506103c8816106c5565b92915050565b6000813590506103dd816106dc565b92915050565b600080604083850312156103f657600080fd5b6000610404858286016103b9565b9250506020610415858286016103ce565b9150509250929050565b60006020828403121561043157600080fd5b600061043f848285016103ce565b91505092915050565b610451816105a6565b82525050565b610460816105b8565b82525050565b61046f81610600565b82525050565b6000610482601f83610595565b915061048d8261069c565b602082019050919050565b6104a1816105f6565b82525050565b60006060820190506104bc6000830186610448565b6104c96020830185610448565b6104d66040830184610498565b949350505050565b600060208201905081810360008301526104f781610475565b9050919050565b60006020820190506105136000830184610498565b92915050565b600060a08201905061052e6000830188610498565b61053b6020830187610466565b6105486040830186610498565b6105556060830185610457565b6105626080830184610448565b9695505050505050565b60006040820190506105816000830185610498565b61058e6020830184610498565b9392505050565b600082825260208201905092915050565b60006105b1826105d6565b9050919050565b60008115159050919050565b60006105cf826105a6565b9050919050565b600073ffffffffffffffffffffffffffffffffffffffff82169050919050565b6000819050919050565b600061060b82610612565b9050919050565b600061061d826105d6565b9050919050565b600061062f826105f6565b91507fffffffffffffffffffffffffffffffffffffffffffffffffffffffffffffffff8214156106625761066161066d565b5b600182019050919050565b7f4e487b7100000000000000000000000000000000000000000000000000000000600052601160045260246000fd5b7f5265656e7472616e637947756172643a207265656e7472616e742063616c6c00600082015250565b6106ce816105c4565b81146106d957600080fd5b50565b6106e5816105f6565b81146106f057600080fd5b5056fea2646970667358221220b9391b69a481098438d7fdabbc832801aadc36d6f331d8613d063bcd5205590564736f6c63430008040033",
  "linkReferences": {},
  "deployedLinkReferences": {}
}