{
  "_format": "hh-sol-artifact-1",
  "contractName": "PhineasAndFerb",
  "sourceName": "contracts/PhineasAndFerb.sol",
  "abi": [
    {
      "inputs": [],
      "stateMutability": "nonpayable",
      "type": "constructor"
    },
    {
      "anonymous": false,
      "inputs": [
        {
          "indexed": true,
          "internalType": "address",
          "name": "owner",
          "type": "address"
        },
        {
          "indexed": true,
          "internalType": "address",
          "name": "approved",
          "type": "address"
        },
        {
          "indexed": true,
          "internalType": "uint256",
          "name": "tokenId",
          "type": "uint256"
        }
      ],
      "name": "Approval",
      "type": "event"
    },
    {
      "anonymous": false,
      "inputs": [
        {
          "indexed": true,
          "internalType": "address",
          "name": "owner",
          "type": "address"
        },
        {
          "indexed": true,
          "internalType": "address",
          "name": "operator",
          "type": "address"
        },
        {
          "indexed": false,
          "internalType": "bool",
          "name": "approved",
          "type": "bool"
        }
      ],
      "name": "ApprovalForAll",
      "type": "event"
    },
    {
      "anonymous": false,
      "inputs": [
        {
          "indexed": true,
          "internalType": "address",
          "name": "previousOwner",
          "type": "address"
        },
        {
          "indexed": true,
          "internalType": "address",
          "name": "newOwner",
          "type": "address"
        }
      ],
      "name": "OwnershipTransferred",
      "type": "event"
    },
    {
      "anonymous": false,
      "inputs": [
        {
          "indexed": true,
          "internalType": "address",
          "name": "from",
          "type": "address"
        },
        {
          "indexed": true,
          "internalType": "address",
          "name": "to",
          "type": "address"
        },
        {
          "indexed": true,
          "internalType": "uint256",
          "name": "tokenId",
          "type": "uint256"
        }
      ],
      "name": "Transfer",
      "type": "event"
    },
    {
      "inputs": [
        {
          "internalType": "address",
          "name": "to",
          "type": "address"
        },
        {
          "internalType": "uint256",
          "name": "tokenId",
          "type": "uint256"
        }
      ],
      "name": "approve",
      "outputs": [],
      "stateMutability": "nonpayable",
      "type": "function"
    },
    {
      "inputs": [
        {
          "internalType": "address",
          "name": "owner",
          "type": "address"
        }
      ],
      "name": "balanceOf",
      "outputs": [
        {
          "internalType": "uint256",
          "name": "",
          "type": "uint256"
        }
      ],
      "stateMutability": "view",
      "type": "function"
    },
    {
      "inputs": [
        {
          "internalType": "uint256",
          "name": "tokenId",
          "type": "uint256"
        }
      ],
      "name": "getApproved",
      "outputs": [
        {
          "internalType": "address",
          "name": "",
          "type": "address"
        }
      ],
      "stateMutability": "view",
      "type": "function"
    },
    {
      "inputs": [
        {
          "internalType": "address",
          "name": "owner",
          "type": "address"
        },
        {
          "internalType": "address",
          "name": "operator",
          "type": "address"
        }
      ],
      "name": "isApprovedForAll",
      "outputs": [
        {
          "internalType": "bool",
          "name": "",
          "type": "bool"
        }
      ],
      "stateMutability": "view",
      "type": "function"
    },
    {
      "inputs": [],
      "name": "limit",
      "outputs": [
        {
          "internalType": "uint256",
          "name": "",
          "type": "uint256"
        }
      ],
      "stateMutability": "view",
      "type": "function"
    },
    {
      "inputs": [],
      "name": "name",
      "outputs": [
        {
          "internalType": "string",
          "name": "",
          "type": "string"
        }
      ],
      "stateMutability": "view",
      "type": "function"
    },
    {
      "inputs": [],
      "name": "owner",
      "outputs": [
        {
          "internalType": "address",
          "name": "",
          "type": "address"
        }
      ],
      "stateMutability": "view",
      "type": "function"
    },
    {
      "inputs": [
        {
          "internalType": "uint256",
          "name": "tokenId",
          "type": "uint256"
        }
      ],
      "name": "ownerOf",
      "outputs": [
        {
          "internalType": "address",
          "name": "",
          "type": "address"
        }
      ],
      "stateMutability": "view",
      "type": "function"
    },
    {
      "inputs": [],
      "name": "renounceOwnership",
      "outputs": [],
      "stateMutability": "nonpayable",
      "type": "function"
    },
    {
      "inputs": [
        {
          "internalType": "address",
          "name": "to",
          "type": "address"
        },
        {
          "internalType": "string",
          "name": "uri",
          "type": "string"
        }
      ],
      "name": "safeMint",
      "outputs": [],
      "stateMutability": "nonpayable",
      "type": "function"
    },
    {
      "inputs": [
        {
          "internalType": "address",
          "name": "from",
          "type": "address"
        },
        {
          "internalType": "address",
          "name": "to",
          "type": "address"
        },
        {
          "internalType": "uint256",
          "name": "tokenId",
          "type": "uint256"
        }
      ],
      "name": "safeTransferFrom",
      "outputs": [],
      "stateMutability": "nonpayable",
      "type": "function"
    },
    {
      "inputs": [
        {
          "internalType": "address",
          "name": "from",
          "type": "address"
        },
        {
          "internalType": "address",
          "name": "to",
          "type": "address"
        },
        {
          "internalType": "uint256",
          "name": "tokenId",
          "type": "uint256"
        },
        {
          "internalType": "bytes",
          "name": "data",
          "type": "bytes"
        }
      ],
      "name": "safeTransferFrom",
      "outputs": [],
      "stateMutability": "nonpayable",
      "type": "function"
    },
    {
      "inputs": [
        {
          "internalType": "address",
          "name": "operator",
          "type": "address"
        },
        {
          "internalType": "bool",
          "name": "approved",
          "type": "bool"
        }
      ],
      "name": "setApprovalForAll",
      "outputs": [],
      "stateMutability": "nonpayable",
      "type": "function"
    },
    {
      "inputs": [
        {
          "internalType": "bytes4",
          "name": "interfaceId",
          "type": "bytes4"
        }
      ],
      "name": "supportsInterface",
      "outputs": [
        {
          "internalType": "bool",
          "name": "",
          "type": "bool"
        }
      ],
      "stateMutability": "view",
      "type": "function"
    },
    {
      "inputs": [],
      "name": "symbol",
      "outputs": [
        {
          "internalType": "string",
          "name": "",
          "type": "string"
        }
      ],
      "stateMutability": "view",
      "type": "function"
    },
    {
      "inputs": [],
      "name": "tokenCount",
      "outputs": [
        {
          "internalType": "uint256",
          "name": "",
          "type": "uint256"
        }
      ],
      "stateMutability": "view",
      "type": "function"
    },
    {
      "inputs": [
        {
          "internalType": "uint256",
          "name": "tokenId",
          "type": "uint256"
        }
      ],
      "name": "tokenURI",
      "outputs": [
        {
          "internalType": "string",
          "name": "",
          "type": "string"
        }
      ],
      "stateMutability": "view",
      "type": "function"
    },
    {
      "inputs": [
        {
          "internalType": "address",
          "name": "from",
          "type": "address"
        },
        {
          "internalType": "address",
          "name": "to",
          "type": "address"
        },
        {
          "internalType": "uint256",
          "name": "tokenId",
          "type": "uint256"
        }
      ],
      "name": "transferFrom",
      "outputs": [],
      "stateMutability": "nonpayable",
      "type": "function"
    },
    {
      "inputs": [
        {
          "internalType": "address",
          "name": "newOwner",
          "type": "address"
        }
      ],
      "name": "transferOwnership",
      "outputs": [],
      "stateMutability": "nonpayable",
      "type": "function"
    },
    {
      "inputs": [
        {
          "internalType": "uint256",
          "name": "_tokenId",
          "type": "uint256"
        },
        {
          "internalType": "string",
          "name": "_tokenUri",
          "type": "string"
        }
      ],
      "name": "updateTokenURI",
      "outputs": [],
      "stateMutability": "nonpayable",
      "type": "function"
    }
  ],
  "bytecode": "0x6080604052610bb8600a553480156200001757600080fd5b506040518060400160405280600e81526020017f5068696e656173416e64466572620000000000000000000000000000000000008152506040518060400160405280600381526020017f504e46000000000000000000000000000000000000000000000000000000000081525081600090805190602001906200009c929190620001ac565b508060019080519060200190620000b5929190620001ac565b505050620000d8620000cc620000de60201b60201c565b620000e660201b60201c565b620002c1565b600033905090565b6000600760009054906101000a900473ffffffffffffffffffffffffffffffffffffffff16905081600760006101000a81548173ffffffffffffffffffffffffffffffffffffffff021916908373ffffffffffffffffffffffffffffffffffffffff1602179055508173ffffffffffffffffffffffffffffffffffffffff168173ffffffffffffffffffffffffffffffffffffffff167f8be0079c531659141344cd1fd0a4f28419497f9722a3daafe3b4186f6b6457e060405160405180910390a35050565b828054620001ba906200025c565b90600052602060002090601f016020900481019282620001de57600085556200022a565b82601f10620001f957805160ff19168380011785556200022a565b828001600101855582156200022a579182015b82811115620002295782518255916020019190600101906200020c565b5b5090506200023991906200023d565b5090565b5b80821115620002585760008160009055506001016200023e565b5090565b600060028204905060018216806200027557607f821691505b602082108114156200028c576200028b62000292565b5b50919050565b7f4e487b7100000000000000000000000000000000000000000000000000000000600052602260045260246000fd5b612e4580620002d16000396000f3fe608060405234801561001057600080fd5b506004361061012c5760003560e01c80638da5cb5b116100ad578063b88d4fde11610071578063b88d4fde1461031d578063c87b56dd14610339578063d204c45e14610369578063e985e9c514610385578063f2fde38b146103b55761012c565b80638da5cb5b1461028957806395d89b41146102a75780639f181b5e146102c5578063a22cb465146102e3578063a4d66daf146102ff5761012c565b806323b872dd116100f457806323b872dd146101e757806342842e0e146102035780636352211e1461021f57806370a082311461024f578063715018a61461027f5761012c565b806301ffc9a71461013157806306fdde0314610161578063081812fc1461017f578063095ea7b3146101af57806318e97fd1146101cb575b600080fd5b61014b60048036038101906101469190611f72565b6103d1565b60405161015891906123a9565b60405180910390f35b6101696104b3565b60405161017691906123c4565b60405180910390f35b61019960048036038101906101949190611fc4565b610545565b6040516101a69190612342565b60405180910390f35b6101c960048036038101906101c49190611f36565b61058b565b005b6101e560048036038101906101e09190611fed565b6106a3565b005b61020160048036038101906101fc9190611ddc565b6106b9565b005b61021d60048036038101906102189190611ddc565b610719565b005b61023960048036038101906102349190611fc4565b610739565b6040516102469190612342565b60405180910390f35b61026960048036038101906102649190611d77565b6107eb565b60405161027691906125c6565b60405180910390f35b6102876108a3565b005b6102916108b7565b60405161029e9190612342565b60405180910390f35b6102af6108e1565b6040516102bc91906123c4565b60405180910390f35b6102cd610973565b6040516102da91906125c6565b60405180910390f35b6102fd60048036038101906102f89190611ea6565b610979565b005b61030761098f565b60405161031491906125c6565b60405180910390f35b61033760048036038101906103329190611e2b565b610995565b005b610353600480360381019061034e9190611fc4565b6109f7565b60405161036091906123c4565b60405180910390f35b610383600480360381019061037e9190611ee2565b610a09565b005b61039f600480360381019061039a9190611da0565b610aa1565b6040516103ac91906123a9565b60405180910390f35b6103cf60048036038101906103ca9190611d77565b610b35565b005b60007f80ac58cd000000000000000000000000000000000000000000000000000000007bffffffffffffffffffffffffffffffffffffffffffffffffffffffff1916827bffffffffffffffffffffffffffffffffffffffffffffffffffffffff1916148061049c57507f5b5e139f000000000000000000000000000000000000000000000000000000007bffffffffffffffffffffffffffffffffffffffffffffffffffffffff1916827bffffffffffffffffffffffffffffffffffffffffffffffffffffffff1916145b806104ac57506104ab82610bb9565b5b9050919050565b6060600080546104c29061281c565b80601f01602080910402602001604051908101604052809291908181526020018280546104ee9061281c565b801561053b5780601f106105105761010080835404028352916020019161053b565b820191906000526020600020905b81548152906001019060200180831161051e57829003601f168201915b5050505050905090565b600061055082610c23565b6004600083815260200190815260200160002060009054906101000a900473ffffffffffffffffffffffffffffffffffffffff169050919050565b600061059682610739565b90508073ffffffffffffffffffffffffffffffffffffffff168373ffffffffffffffffffffffffffffffffffffffff161415610607576040517f08c379a00000000000000000000000000000000000000000000000000000000081526004016105fe90612566565b60405180910390fd5b8073ffffffffffffffffffffffffffffffffffffffff16610626610c6e565b73ffffffffffffffffffffffffffffffffffffffff16148061065557506106548161064f610c6e565b610aa1565b5b610694576040517f08c379a000000000000000000000000000000000000000000000000000000000815260040161068b906124e6565b60405180910390fd5b61069e8383610c76565b505050565b6106ab610d2f565b6106b58282610dad565b5050565b6106ca6106c4610c6e565b82610e21565b610709576040517f08c379a0000000000000000000000000000000000000000000000000000000008152600401610700906125a6565b60405180910390fd5b610714838383610eb6565b505050565b61073483838360405180602001604052806000815250610995565b505050565b6000806002600084815260200190815260200160002060009054906101000a900473ffffffffffffffffffffffffffffffffffffffff169050600073ffffffffffffffffffffffffffffffffffffffff168173ffffffffffffffffffffffffffffffffffffffff1614156107e2576040517f08c379a00000000000000000000000000000000000000000000000000000000081526004016107d990612546565b60405180910390fd5b80915050919050565b60008073ffffffffffffffffffffffffffffffffffffffff168273ffffffffffffffffffffffffffffffffffffffff16141561085c576040517f08c379a0000000000000000000000000000000000000000000000000000000008152600401610853906124a6565b60405180910390fd5b600360008373ffffffffffffffffffffffffffffffffffffffff1673ffffffffffffffffffffffffffffffffffffffff168152602001908152602001600020549050919050565b6108ab610d2f565b6108b5600061111d565b565b6000600760009054906101000a900473ffffffffffffffffffffffffffffffffffffffff16905090565b6060600180546108f09061281c565b80601f016020809104026020016040519081016040528092919081815260200182805461091c9061281c565b80156109695780601f1061093e57610100808354040283529160200191610969565b820191906000526020600020905b81548152906001019060200180831161094c57829003601f168201915b5050505050905090565b60095481565b61098b610984610c6e565b83836111e3565b5050565b600a5481565b6109a66109a0610c6e565b83610e21565b6109e5576040517f08c379a00000000000000000000000000000000000000000000000000000000081526004016109dc906125a6565b60405180910390fd5b6109f184848484611350565b50505050565b6060610a02826113ac565b9050919050565b610a11610d2f565b60096000815480929190610a249061287f565b9190505550600a546009541115610a70576040517f08c379a0000000000000000000000000000000000000000000000000000000008152600401610a6790612586565b60405180910390fd5b6000610a7c60086114bf565b9050610a8860086114cd565b610a9283826114e3565b610a9c8183610dad565b505050565b6000600560008473ffffffffffffffffffffffffffffffffffffffff1673ffffffffffffffffffffffffffffffffffffffff16815260200190815260200160002060008373ffffffffffffffffffffffffffffffffffffffff1673ffffffffffffffffffffffffffffffffffffffff16815260200190815260200160002060009054906101000a900460ff16905092915050565b610b3d610d2f565b600073ffffffffffffffffffffffffffffffffffffffff168173ffffffffffffffffffffffffffffffffffffffff161415610bad576040517f08c379a0000000000000000000000000000000000000000000000000000000008152600401610ba490612406565b60405180910390fd5b610bb68161111d565b50565b60007f01ffc9a7000000000000000000000000000000000000000000000000000000007bffffffffffffffffffffffffffffffffffffffffffffffffffffffff1916827bffffffffffffffffffffffffffffffffffffffffffffffffffffffff1916149050919050565b610c2c81611501565b610c6b576040517f08c379a0000000000000000000000000000000000000000000000000000000008152600401610c6290612546565b60405180910390fd5b50565b600033905090565b816004600083815260200190815260200160002060006101000a81548173ffffffffffffffffffffffffffffffffffffffff021916908373ffffffffffffffffffffffffffffffffffffffff160217905550808273ffffffffffffffffffffffffffffffffffffffff16610ce983610739565b73ffffffffffffffffffffffffffffffffffffffff167f8c5be1e5ebec7d5bd14f71427d1e84f3dd0314c0f7b2291e5b200ac8c7c3b92560405160405180910390a45050565b610d37610c6e565b73ffffffffffffffffffffffffffffffffffffffff16610d556108b7565b73ffffffffffffffffffffffffffffffffffffffff1614610dab576040517f08c379a0000000000000000000000000000000000000000000000000000000008152600401610da290612526565b60405180910390fd5b565b610db682611501565b610df5576040517f08c379a0000000000000000000000000000000000000000000000000000000008152600401610dec906124c6565b60405180910390fd5b80600660008481526020019081526020016000209080519060200190610e1c929190611b9b565b505050565b600080610e2d83610739565b90508073ffffffffffffffffffffffffffffffffffffffff168473ffffffffffffffffffffffffffffffffffffffff161480610e6f5750610e6e8185610aa1565b5b80610ead57508373ffffffffffffffffffffffffffffffffffffffff16610e9584610545565b73ffffffffffffffffffffffffffffffffffffffff16145b91505092915050565b8273ffffffffffffffffffffffffffffffffffffffff16610ed682610739565b73ffffffffffffffffffffffffffffffffffffffff1614610f2c576040517f08c379a0000000000000000000000000000000000000000000000000000000008152600401610f2390612426565b60405180910390fd5b600073ffffffffffffffffffffffffffffffffffffffff168273ffffffffffffffffffffffffffffffffffffffff161415610f9c576040517f08c379a0000000000000000000000000000000000000000000000000000000008152600401610f9390612466565b60405180910390fd5b610fa783838361156d565b610fb2600082610c76565b6001600360008573ffffffffffffffffffffffffffffffffffffffff1673ffffffffffffffffffffffffffffffffffffffff16815260200190815260200160002060008282546110029190612732565b925050819055506001600360008473ffffffffffffffffffffffffffffffffffffffff1673ffffffffffffffffffffffffffffffffffffffff168152602001908152602001600020600082825461105991906126ab565b92505081905550816002600083815260200190815260200160002060006101000a81548173ffffffffffffffffffffffffffffffffffffffff021916908373ffffffffffffffffffffffffffffffffffffffff160217905550808273ffffffffffffffffffffffffffffffffffffffff168473ffffffffffffffffffffffffffffffffffffffff167fddf252ad1be2c89b69c2b068fc378daa952ba7f163c4a11628f55a4df523b3ef60405160405180910390a4611118838383611572565b505050565b6000600760009054906101000a900473ffffffffffffffffffffffffffffffffffffffff16905081600760006101000a81548173ffffffffffffffffffffffffffffffffffffffff021916908373ffffffffffffffffffffffffffffffffffffffff1602179055508173ffffffffffffffffffffffffffffffffffffffff168173ffffffffffffffffffffffffffffffffffffffff167f8be0079c531659141344cd1fd0a4f28419497f9722a3daafe3b4186f6b6457e060405160405180910390a35050565b8173ffffffffffffffffffffffffffffffffffffffff168373ffffffffffffffffffffffffffffffffffffffff161415611252576040517f08c379a000000000000000000000000000000000000000000000000000000000815260040161124990612486565b60405180910390fd5b80600560008573ffffffffffffffffffffffffffffffffffffffff1673ffffffffffffffffffffffffffffffffffffffff16815260200190815260200160002060008473ffffffffffffffffffffffffffffffffffffffff1673ffffffffffffffffffffffffffffffffffffffff16815260200190815260200160002060006101000a81548160ff0219169083151502179055508173ffffffffffffffffffffffffffffffffffffffff168373ffffffffffffffffffffffffffffffffffffffff167f17307eab39ab6107e8899845ad3d59bd9653f200f220920489ca2b5937696c318360405161134391906123a9565b60405180910390a3505050565b61135b848484610eb6565b61136784848484611577565b6113a6576040517f08c379a000000000000000000000000000000000000000000000000000000000815260040161139d906123e6565b60405180910390fd5b50505050565b60606113b782610c23565b60006006600084815260200190815260200160002080546113d79061281c565b80601f01602080910402602001604051908101604052809291908181526020018280546114039061281c565b80156114505780601f1061142557610100808354040283529160200191611450565b820191906000526020600020905b81548152906001019060200180831161143357829003601f168201915b50505050509050600061146161170e565b90506000815114156114775781925050506114ba565b6000825111156114ac57808260405160200161149492919061231e565b604051602081830303815290604052925050506114ba565b6114b58461172e565b925050505b919050565b600081600001549050919050565b6001816000016000828254019250508190555050565b6114fd828260405180602001604052806000815250611796565b5050565b60008073ffffffffffffffffffffffffffffffffffffffff166002600084815260200190815260200160002060009054906101000a900473ffffffffffffffffffffffffffffffffffffffff1673ffffffffffffffffffffffffffffffffffffffff1614159050919050565b505050565b505050565b60006115988473ffffffffffffffffffffffffffffffffffffffff166117f1565b15611701578373ffffffffffffffffffffffffffffffffffffffff1663150b7a026115c1610c6e565b8786866040518563ffffffff1660e01b81526004016115e3949392919061235d565b602060405180830381600087803b1580156115fd57600080fd5b505af192505050801561162e57506040513d601f19601f8201168201806040525081019061162b9190611f9b565b60015b6116b1573d806000811461165e576040519150601f19603f3d011682016040523d82523d6000602084013e611663565b606091505b506000815114156116a9576040517f08c379a00000000000000000000000000000000000000000000000000000000081526004016116a0906123e6565b60405180910390fd5b805181602001fd5b63150b7a0260e01b7bffffffffffffffffffffffffffffffffffffffffffffffffffffffff1916817bffffffffffffffffffffffffffffffffffffffffffffffffffffffff191614915050611706565b600190505b949350505050565b6060604051806060016040528060308152602001612de060309139905090565b606061173982610c23565b600061174361170e565b90506000815111611763576040518060200160405280600081525061178e565b8061176d84611814565b60405160200161177e92919061231e565b6040516020818303038152906040525b915050919050565b6117a083836119c1565b6117ad6000848484611577565b6117ec576040517f08c379a00000000000000000000000000000000000000000000000000000000081526004016117e3906123e6565b60405180910390fd5b505050565b6000808273ffffffffffffffffffffffffffffffffffffffff163b119050919050565b6060600082141561185c576040518060400160405280600181526020017f300000000000000000000000000000000000000000000000000000000000000081525090506119bc565b600082905060005b6000821461188e5780806118779061287f565b915050600a826118879190612701565b9150611864565b60008167ffffffffffffffff8111156118d0577f4e487b7100000000000000000000000000000000000000000000000000000000600052604160045260246000fd5b6040519080825280601f01601f1916602001820160405280156119025781602001600182028036833780820191505090505b5090505b600085146119b55760018261191b9190612732565b9150600a8561192a91906128c8565b603061193691906126ab565b60f81b818381518110611972577f4e487b7100000000000000000000000000000000000000000000000000000000600052603260045260246000fd5b60200101907effffffffffffffffffffffffffffffffffffffffffffffffffffffffffffff1916908160001a905350600a856119ae9190612701565b9450611906565b8093505050505b919050565b600073ffffffffffffffffffffffffffffffffffffffff168273ffffffffffffffffffffffffffffffffffffffff161415611a31576040517f08c379a0000000000000000000000000000000000000000000000000000000008152600401611a2890612506565b60405180910390fd5b611a3a81611501565b15611a7a576040517f08c379a0000000000000000000000000000000000000000000000000000000008152600401611a7190612446565b60405180910390fd5b611a866000838361156d565b6001600360008473ffffffffffffffffffffffffffffffffffffffff1673ffffffffffffffffffffffffffffffffffffffff1681526020019081526020016000206000828254611ad691906126ab565b92505081905550816002600083815260200190815260200160002060006101000a81548173ffffffffffffffffffffffffffffffffffffffff021916908373ffffffffffffffffffffffffffffffffffffffff160217905550808273ffffffffffffffffffffffffffffffffffffffff16600073ffffffffffffffffffffffffffffffffffffffff167fddf252ad1be2c89b69c2b068fc378daa952ba7f163c4a11628f55a4df523b3ef60405160405180910390a4611b9760008383611572565b5050565b828054611ba79061281c565b90600052602060002090601f016020900481019282611bc95760008555611c10565b82601f10611be257805160ff1916838001178555611c10565b82800160010185558215611c10579182015b82811115611c0f578251825591602001919060010190611bf4565b5b509050611c1d9190611c21565b5090565b5b80821115611c3a576000816000905550600101611c22565b5090565b6000611c51611c4c84612606565b6125e1565b905082815260208101848484011115611c6957600080fd5b611c748482856127da565b509392505050565b6000611c8f611c8a84612637565b6125e1565b905082815260208101848484011115611ca757600080fd5b611cb28482856127da565b509392505050565b600081359050611cc981612d83565b92915050565b600081359050611cde81612d9a565b92915050565b600081359050611cf381612db1565b92915050565b600081519050611d0881612db1565b92915050565b600082601f830112611d1f57600080fd5b8135611d2f848260208601611c3e565b91505092915050565b600082601f830112611d4957600080fd5b8135611d59848260208601611c7c565b91505092915050565b600081359050611d7181612dc8565b92915050565b600060208284031215611d8957600080fd5b6000611d9784828501611cba565b91505092915050565b60008060408385031215611db357600080fd5b6000611dc185828601611cba565b9250506020611dd285828601611cba565b9150509250929050565b600080600060608486031215611df157600080fd5b6000611dff86828701611cba565b9350506020611e1086828701611cba565b9250506040611e2186828701611d62565b9150509250925092565b60008060008060808587031215611e4157600080fd5b6000611e4f87828801611cba565b9450506020611e6087828801611cba565b9350506040611e7187828801611d62565b925050606085013567ffffffffffffffff811115611e8e57600080fd5b611e9a87828801611d0e565b91505092959194509250565b60008060408385031215611eb957600080fd5b6000611ec785828601611cba565b9250506020611ed885828601611ccf565b9150509250929050565b60008060408385031215611ef557600080fd5b6000611f0385828601611cba565b925050602083013567ffffffffffffffff811115611f2057600080fd5b611f2c85828601611d38565b9150509250929050565b60008060408385031215611f4957600080fd5b6000611f5785828601611cba565b9250506020611f6885828601611d62565b9150509250929050565b600060208284031215611f8457600080fd5b6000611f9284828501611ce4565b91505092915050565b600060208284031215611fad57600080fd5b6000611fbb84828501611cf9565b91505092915050565b600060208284031215611fd657600080fd5b6000611fe484828501611d62565b91505092915050565b6000806040838503121561200057600080fd5b600061200e85828601611d62565b925050602083013567ffffffffffffffff81111561202b57600080fd5b61203785828601611d38565b9150509250929050565b61204a81612766565b82525050565b61205981612778565b82525050565b600061206a82612668565b612074818561267e565b93506120848185602086016127e9565b61208d816129b5565b840191505092915050565b60006120a382612673565b6120ad818561268f565b93506120bd8185602086016127e9565b6120c6816129b5565b840191505092915050565b60006120dc82612673565b6120e681856126a0565b93506120f68185602086016127e9565b80840191505092915050565b600061210f60328361268f565b915061211a826129c6565b604082019050919050565b600061213260268361268f565b915061213d82612a15565b604082019050919050565b600061215560258361268f565b915061216082612a64565b604082019050919050565b6000612178601c8361268f565b915061218382612ab3565b602082019050919050565b600061219b60248361268f565b91506121a682612adc565b604082019050919050565b60006121be60198361268f565b91506121c982612b2b565b602082019050919050565b60006121e160298361268f565b91506121ec82612b54565b604082019050919050565b6000612204602e8361268f565b915061220f82612ba3565b604082019050919050565b6000612227603e8361268f565b915061223282612bf2565b604082019050919050565b600061224a60208361268f565b915061225582612c41565b602082019050919050565b600061226d60208361268f565b915061227882612c6a565b602082019050919050565b600061229060188361268f565b915061229b82612c93565b602082019050919050565b60006122b360218361268f565b91506122be82612cbc565b604082019050919050565b60006122d6601e8361268f565b91506122e182612d0b565b602082019050919050565b60006122f9602e8361268f565b915061230482612d34565b604082019050919050565b612318816127d0565b82525050565b600061232a82856120d1565b915061233682846120d1565b91508190509392505050565b60006020820190506123576000830184612041565b92915050565b60006080820190506123726000830187612041565b61237f6020830186612041565b61238c604083018561230f565b818103606083015261239e818461205f565b905095945050505050565b60006020820190506123be6000830184612050565b92915050565b600060208201905081810360008301526123de8184612098565b905092915050565b600060208201905081810360008301526123ff81612102565b9050919050565b6000602082019050818103600083015261241f81612125565b9050919050565b6000602082019050818103600083015261243f81612148565b9050919050565b6000602082019050818103600083015261245f8161216b565b9050919050565b6000602082019050818103600083015261247f8161218e565b9050919050565b6000602082019050818103600083015261249f816121b1565b9050919050565b600060208201905081810360008301526124bf816121d4565b9050919050565b600060208201905081810360008301526124df816121f7565b9050919050565b600060208201905081810360008301526124ff8161221a565b9050919050565b6000602082019050818103600083015261251f8161223d565b9050919050565b6000602082019050818103600083015261253f81612260565b9050919050565b6000602082019050818103600083015261255f81612283565b9050919050565b6000602082019050818103600083015261257f816122a6565b9050919050565b6000602082019050818103600083015261259f816122c9565b9050919050565b600060208201905081810360008301526125bf816122ec565b9050919050565b60006020820190506125db600083018461230f565b92915050565b60006125eb6125fc565b90506125f7828261284e565b919050565b6000604051905090565b600067ffffffffffffffff82111561262157612620612986565b5b61262a826129b5565b9050602081019050919050565b600067ffffffffffffffff82111561265257612651612986565b5b61265b826129b5565b9050602081019050919050565b600081519050919050565b600081519050919050565b600082825260208201905092915050565b600082825260208201905092915050565b600081905092915050565b60006126b6826127d0565b91506126c1836127d0565b9250827fffffffffffffffffffffffffffffffffffffffffffffffffffffffffffffffff038211156126f6576126f56128f9565b5b828201905092915050565b600061270c826127d0565b9150612717836127d0565b92508261272757612726612928565b5b828204905092915050565b600061273d826127d0565b9150612748836127d0565b92508282101561275b5761275a6128f9565b5b828203905092915050565b6000612771826127b0565b9050919050565b60008115159050919050565b60007fffffffff0000000000000000000000000000000000000000000000000000000082169050919050565b600073ffffffffffffffffffffffffffffffffffffffff82169050919050565b6000819050919050565b82818337600083830152505050565b60005b838110156128075780820151818401526020810190506127ec565b83811115612816576000848401525b50505050565b6000600282049050600182168061283457607f821691505b6020821081141561284857612847612957565b5b50919050565b612857826129b5565b810181811067ffffffffffffffff8211171561287657612875612986565b5b80604052505050565b600061288a826127d0565b91507fffffffffffffffffffffffffffffffffffffffffffffffffffffffffffffffff8214156128bd576128bc6128f9565b5b600182019050919050565b60006128d3826127d0565b91506128de836127d0565b9250826128ee576128ed612928565b5b828206905092915050565b7f4e487b7100000000000000000000000000000000000000000000000000000000600052601160045260246000fd5b7f4e487b7100000000000000000000000000000000000000000000000000000000600052601260045260246000fd5b7f4e487b7100000000000000000000000000000000000000000000000000000000600052602260045260246000fd5b7f4e487b7100000000000000000000000000000000000000000000000000000000600052604160045260246000fd5b6000601f19601f8301169050919050565b7f4552433732313a207472616e7366657220746f206e6f6e20455243373231526560008201527f63656976657220696d706c656d656e7465720000000000000000000000000000602082015250565b7f4f776e61626c653a206e6577206f776e657220697320746865207a65726f206160008201527f6464726573730000000000000000000000000000000000000000000000000000602082015250565b7f4552433732313a207472616e736665722066726f6d20696e636f72726563742060008201527f6f776e6572000000000000000000000000000000000000000000000000000000602082015250565b7f4552433732313a20746f6b656e20616c7265616479206d696e74656400000000600082015250565b7f4552433732313a207472616e7366657220746f20746865207a65726f2061646460008201527f7265737300000000000000000000000000000000000000000000000000000000602082015250565b7f4552433732313a20617070726f766520746f2063616c6c657200000000000000600082015250565b7f4552433732313a2061646472657373207a65726f206973206e6f74206120766160008201527f6c6964206f776e65720000000000000000000000000000000000000000000000602082015250565b7f45524337323155524953746f726167653a2055524920736574206f66206e6f6e60008201527f6578697374656e7420746f6b656e000000000000000000000000000000000000602082015250565b7f4552433732313a20617070726f76652063616c6c6572206973206e6f7420746f60008201527f6b656e206f776e6572206e6f7220617070726f76656420666f7220616c6c0000602082015250565b7f4552433732313a206d696e7420746f20746865207a65726f2061646472657373600082015250565b7f4f776e61626c653a2063616c6c6572206973206e6f7420746865206f776e6572600082015250565b7f4552433732313a20696e76616c696420746f6b656e2049440000000000000000600082015250565b7f4552433732313a20617070726f76616c20746f2063757272656e74206f776e6560008201527f7200000000000000000000000000000000000000000000000000000000000000602082015250565b7f43616e2774206d696e74206d6f7265207468616e2033303030204e4654730000600082015250565b7f4552433732313a2063616c6c6572206973206e6f7420746f6b656e206f776e6560008201527f72206e6f7220617070726f766564000000000000000000000000000000000000602082015250565b612d8c81612766565b8114612d9757600080fd5b50565b612da381612778565b8114612dae57600080fd5b50565b612dba81612784565b8114612dc557600080fd5b50565b612dd1816127d0565b8114612ddc57600080fd5b5056fe68747470733a2f2f6d657461646174612d6170692d7068696e6561732d666572622e6865726f6b756170702e636f6d2fa2646970667358221220dccd863528deb2c81905e7645d25f97df7bdefd330afb867424430e8a39f540264736f6c63430008040033",
  "linkReferences": {},
  "deployedLinkReferences": {}
}